:100000000C948C010C94B4010C94B4010C94B401C4
:100010000C94B4010C94B4010C94B4010C94B4018C
:100020000C94B4010C94B4010C94B4010C94B4017C
:100030000C94B4010C94B4010C94B4010C94B4016C
:100040000C942E060C94B4010C9451050C94830569
:100050000C94B4010C94B4010C94B4010C94B4014C
:100060000C94B4010C94B401000000000000005F87
:1000700000000007000700147F147F14242A7F2A41
:10008000122313086462364955225000050300000C
:10009000001C2241000041221C0014083E081408E4
:1000A000083E0808005030000008080808080060F2
:1000B00060000020100804023E5149453E00427F86
:1000C000400042615149462141454B311814127F8D
:1000D0001027454545393C4A494930017109050316
:1000E0003649494936064949291E0036360000007E
:1000F0005636000008142241001414141414004150
:100100002214080201510906324979413E7E11113B
:10011000117E7F494949363E414141227F4141227A
:100120001C7F494949417F090909013E4149497AF2
:100130007F0808087F00417F41002040413F017F48
:10014000081422417F404040407F020C027F7F0420
:1001500008107F3E4141413E7F090909063E415159
:10016000215E7F09192946464949493101017F012C
:10017000013F4040403F1F2040201F3F4038403F4C
:100180006314081463070870080761514945430068
:100190007F41410002040810200041417F00040219
:1001A0000102044040404040000102040020545439
:1001B00054787F48444438384444442038444448C0
:1001C0007F3854545418087E0901020C5252523E92
:1001D0007F0804047800447D40002040443D007FB7
:1001E0001028440000417F40007C041804787C08FB
:1001F00004047838444444387C1414140808141453
:10020000187C7C080404084854545420043F44409B
:10021000203C4040207C1C2040201C3C4030403C86
:1002200044281028440C5050503C4464544C440022
:100230000836410000007F00000041360800100829
:100240000810087846414678FFFFFFFFFF2054540E
:10025000D4783844464520385454D41800497F4453
:10026000007C0806057838444645384854565520E1
:100270004464564D444464554C443C424643247FB8
:10028000504844404C525653224266534A464262BA
:10029000534A463845444538205554557C3C4140E6
:1002A000217C78151415783C4140413C3845444543
:1002B000386C7A7C67747659665E607B73655D5FC7
:1002C0005C716278696300000008000201000003AD
:1002D00004070000000000000000010204081020D4
:1002E00040800102040810200102040810200404C8
:1002F00004040404040402020202020203030303CE
:10030000030300000000250028002B00000000006F
:10031000240027002A00B30511241FBECFEFD8E028
:10032000DEBFCDBF11E0A0E0B1E0EEEEFDE002C027
:1003300005900D92A436B107D9F722E0A4E6B1E00A
:1003400001C01D92AE30B207E1F713E0C8E1D3E07F
:1003500004C02297FE010E94F106C631D107C9F7F9
:100360000E941F060C94F5060C9400002091660173
:10037000222399F03FB7F89420916601213059F477
:100380002DB3209364014DB3209165012095242362
:100390002DBB3FBF02C0309364018CBD9DBD08954D
:1003A0008EBD00000DB407FEFDCF8EB5089580917F
:1003B0006601882361F09FB7F894209166018091CF
:1003C0006401213019F48DBB9FBF08958FBF08953C
:1003D00061E082E00E949D0361E083E00E949D0352
:1003E00061E084E00E949D0361E08AE00E949D0339
:1003F00061E08BE00E949D0360E08CE00E949D0321
:1004000061E08DE00E949D0360E081E10E949D0318
:1004100061E083E00E94D60361E08AE00C94D60399
:10042000CF93C82F61E084E00E94D60360E083E0B0
:100430000E94D6038C2F0E94D00161E083E0CF910F
:100440000C94D6030F931F93CF93DF9395E089020B
:1004500080011124C0E0D0E008591F4FF801EC0FD3
:10046000FD1F84910E9410022196C530D105B1F77D
:1004700080E0DF91CF911F910F910C941002805278
:100480000C942202E1EBF2E090E0282F332727FDC5
:100490003095449150E04217530721F480E6890FCC
:1004A0000C9422029F5F31969531C1F3F2CFFF92F7
:1004B0000F931F93CF93DF93EC0181E591E00E94AE
:1004C000B60187E2F82E88818823D9F087FF15C00E
:1004D0008E010E5F1F4F282F237827FF03C0215066
:1004E0002C6F2F5F89816F2D0E94B306920F80E8D9
:1004F000890F0E944202E801E6CF21960E943F0246
:10050000E2CFDF91CF911F910F91FF900C94D70113
:10051000CF93C82F60E084E00E94D60360E083E0C0
:100520000E94D6038C2F0E94D00161E083E0CF911E
:100530000C94D6031F93CF93DF931F92CDB7DEB7F2
:10054000182F81E591E069830E94B601812F8068B0
:100550000E9488026981862F80640E9488020F9021
:10056000DF91CF911F910C94D701CF93DF9381E559
:1005700091E00E94B601C8EFD1E080E00E94100235
:100580002197D9F7DF91CF910C94D70160E082E0F9
:100590000E94D60361E082E00E94D60381E591E0EB
:1005A0000E94B60181E20E94880285EB0E948802C7
:1005B00084E00E94880284E10E94880280E20E9416
:1005C00088028CE00E9488020C94D7010E94E80106
:1005D0000E943E0326E040E855E260E070E088E6D5
:1005E00091E00E94EF040E94C6020E94B50260E002
:1005F00070E080E090E00E949A0280E091E00E942A
:10060000570261E070E080E090E00E949A0286E08C
:1006100091E00E94570262E070E080E090E00E946A
:100620009A0285E191E00E94570263E070E080E069
:1006300090E00E949A0284E291E00E94570264E0F6
:1006400070E080E090E00E949A0283E391E00E94D3
:10065000570265E070E080E090E00E949A0282E438
:1006600091E00E94570266E070E080E090E00E9416
:100670009A0281E591E00C9457020895CF93CFB789
:10068000F89480916701811127C0E8EFF2E084912E
:10069000E4EEF2E09491E82FF0E0EE0FFF1FE45F4C
:1006A000FC4FA591B4918C91892321F461E08AE0FB
:1006B0000E94D60361E08AE00E949D038CB58061B0
:1006C0008CBD8CB580648CBD61E08DE00E949D0383
:1006D00061E08BE00E949D03809167018F5F8093B2
:1006E0006701CFBFCF910895833081F028F4813026
:1006F00099F08230A1F008958730A9F08830B9F0E0
:100700008430D1F4809180008F7D03C0809180007F
:100710008F7780938000089584B58F7702C084B569
:100720008F7D84BD08958091B0008F7703C0809144
:10073000B0008F7D8093B0000895CF93DF9390E059
:10074000FC01E652FD4F2491FC01E251FD4F8491E2
:10075000882349F190E0880F991FFC01E45FFC4F6A
:10076000A591B4918E5F9C4FFC01C591D4919FB728
:10077000611108C0F8948C91209582238C93888114
:1007800082230AC0623051F4F8948C91322F309554
:1007900083238C938881822B888304C0F8948C9166
:1007A000822B8C939FBFDF91CF9108950F931F935E
:1007B000CF93DF931F92CDB7DEB7282F30E0F9013A
:1007C000EA53FD4F8491F901E652FD4F1491F9016E
:1007D000E251FD4F04910023C9F0882321F0698381
:1007E0000E9474036981E02FF0E0EE0FFF1FEE5FBF
:1007F000FC4FA591B4919FB7F8948C91611103C0FF
:100800001095812301C0812B8C939FBF0F90DF91A6
:10081000CF911F910F910895FC01818D228D90E061
:10082000805C9F4F821B91098F7399270895FC016B
:10083000918D828D981731F0828DE80FF11D858D95
:1008400090E008958FEF9FEF0895FC01918D828DC8
:10085000981761F0828DDF01A80FB11D5D968C9114
:10086000928D9F5F9F73928F90E008958FEF9FEF1F
:10087000089589EA95E0892B49F080E090E0892B82
:1008800029F00E94A90581110C9400000895FC0133
:10089000848DDF01A80FB11DA35ABF4F2C91848D09
:1008A00090E001968F739927848FA689B7892C933E
:1008B000A089B1898C9180648C93938D848D9813D9
:1008C00006C00288F389E02D80818F7D80830895A2
:1008D000CF93DF93EC01888D8823C9F0EA89FB89E7
:1008E000808185FD05C0A889B9898C9186FD0FC0DE
:1008F0000FB607FCF5CF808185FFF2CFA889B989B3
:100900008C9185FFEDCFCE010E944704E7CFDF91A8
:10091000CF910895CF92DF92FF920F931F93CF93C1
:10092000DF931F92CDB7DEB76C0181E0D6015896F8
:100930008C9358975B969C915B975C968C915C9797
:10094000981307C05096ED91FC915197808185FDD9
:100950002EC0F601038D10E00F5F1F4F0F7311279C
:10096000F02EF601848DF81211C00FB607FCF9CFF6
:10097000D6015096ED91FC915197808185FFF1CF82
:10098000C60169830E9447046981EBCF838DE80F1C
:10099000F11DE35AFF4F6083D6015B960C935B9782
:1009A0005296ED91FC915397808180620CC0D601E4
:1009B0005696ED91FC91579760835096ED91FC917E
:1009C000519780818064808381E090E00F90DF9177
:1009D000CF911F910F91FF90DF90CF900895BF921C
:1009E000CF92DF92EF92FF92CF93DF93EC016A01F7
:1009F0007B01B22EE889F98982E08083411581EE7E
:100A0000580761057105A1F060E079E08DE390E0A1
:100A1000A70196010E94C1062150310941095109DF
:100A20005695479537952795211580E1380798F019
:100A3000E889F989108260E874E88EE190E0A70106
:100A400096010E94C106215031094109510956956C
:100A5000479537952795EC85FD853083EE85FF8595
:100A60002083188EEC89FD89B082EA89FB89808118
:100A700080618083EA89FB89808188608083EA893C
:100A8000FB89808180688083EA89FB8980818F7DF2
:100A90008083DF91CF91FF90EF90DF90CF90BF9058
:100AA00008951F920F920FB60F9211242F938F93D8
:100AB0009F93EF93FF93E0917801F091790180810A
:100AC000E0917E01F0917F0182FD12C090818091C2
:100AD00081018F5F8F7320918201821751F0E09125
:100AE0008101F0E0E859FE4F958F8093810101C0AC
:100AF0008081FF91EF919F918F912F910F900FBE69
:100B00000F901F9018951F920F920FB60F921124FD
:100B10002F933F934F935F936F937F938F939F9305
:100B2000AF93BF93EF93FF9388E691E00E94470451
:100B3000FF91EF91BF91AF919F918F917F916F91B5
:100B40005F914F913F912F910F900FBE0F901F908B
:100B5000189588E691E00E940C0421E0892B09F4A5
:100B600020E0822F089510926B0110926A0188EEA6
:100B700093E0A0E0B0E080936C0190936D01A093AE
:100B80006E01B0936F0187E591E0909369018093C6
:100B9000680185EC90E0909375018093740184EC7A
:100BA00090E0909377018093760180EC90E09093B1
:100BB00079018093780181EC90E090937B018093A0
:100BC0007A0182EC90E090937D0180937C0186EC29
:100BD00090E090937F0180937E01109281011092AA
:100BE000820110928301109284010895CF92DF92C6
:100BF000EF92FF920F931F93CF93DF937C016A01D3
:100C0000EB0100E010E00C151D0571F06991D701B2
:100C1000ED91FC910190F081E02DC7010995892BA0
:100C200019F00F5F1F4FEFCFC801DF91CF911F91D8
:100C30000F91FF90EF90DF90CF90089508950E945C
:100C400078060E941E060E94E602C9E3D4E00E94D4
:100C50003D032097E1F30E943904F9CF1F920F92D0
:100C60000FB60F9211242F933F938F939F93AF93BF
:100C7000BF938091060290910702A0910802B09163
:100C800009023091050223E0230F2D3720F401964D
:100C9000A11DB11D05C026E8230F0296A11DB11D9F
:100CA000209305028093060290930702A093080206
:100CB000B093090280910A0290910B02A0910C025C
:100CC000B0910D020196A11DB11D80930A0290936F
:100CD0000B02A0930C02B0930D02BF91AF919F91B4
:100CE0008F913F912F910F900FBE0F901F901895ED
:100CF000789484B5826084BD84B5816084BD85B5F7
:100D0000826085BD85B5816085BDEEE6F0E08081BD
:100D100081608083E1E8F0E01082808182608083DE
:100D2000808181608083E0E8F0E080818160808361
:100D3000E1EBF0E0808184608083E0EBF0E0808193
:100D400081608083EAE7F0E0808184608083808135
:100D500082608083808181608083808180688083DD
:100D60001092C100089587FB082E062687FD819505
:100D700067FD61950E94E3060EF4919507FC81954D
:100D80000895A1E21A2EAA1BBB1BFD010DC0AA1FCC
:100D9000BB1FEE1FFF1FA217B307E407F50720F0E4
:100DA000A21BB30BE40BF50B661F771F881F991F5F
:100DB0001A9469F760957095809590959B01AC01A8
:100DC000BD01CF010895991B79E004C0991F9617C2
:100DD00008F0961B881F7A95C9F780950895EE0F45
:0E0DE000FF1F0590F491E02D0994F894FFCFC9
:100DEE004E6163699C00F6E4FCC4DCD6DF6162638D
:100DFE00646566670068696A6B6C6D6E6F707172A0
:100E0E007374750077797A31323334353637383931
:100E1E00302D003D21402324255E262A28295F2BD4
:100E2E005B005D3B272C2E2F5C7B7D7C3A223C3E6B
:100E3E00003F00000000008A04F6050C042504178C
:040E4E000468040030
:00000001FF
